{
  "_format": "hh-sol-artifact-1",
  "contractName": "TodoList",
  "sourceName": "contracts/TodoList.sol",
  "abi": [
    {
      "inputs": [
        {
          "internalType": "string",
          "name": "_content",
          "type": "string"
        }
      ],
      "name": "createTask",
      "outputs": [],
      "stateMutability": "nonpayable",
      "type": "function"
    },
    {
      "inputs": [],
      "name": "getNumberOfTasks",
      "outputs": [
        {
          "internalType": "uint256",
          "name": "",
          "type": "uint256"
        }
      ],
      "stateMutability": "view",
      "type": "function"
    },
    {
      "inputs": [],
      "name": "getTasks",
      "outputs": [
        {
          "components": [
            {
              "internalType": "string",
              "name": "content",
              "type": "string"
            },
            {
              "internalType": "bool",
              "name": "completed",
              "type": "bool"
            }
          ],
          "internalType": "struct TodoList.Task[]",
          "name": "",
          "type": "tuple[]"
        }
      ],
      "stateMutability": "view",
      "type": "function"
    },
    {
      "inputs": [
        {
          "internalType": "uint256",
          "name": "",
          "type": "uint256"
        }
      ],
      "name": "tasks",
      "outputs": [
        {
          "internalType": "string",
          "name": "content",
          "type": "string"
        },
        {
          "internalType": "bool",
          "name": "completed",
          "type": "bool"
        }
      ],
      "stateMutability": "view",
      "type": "function"
    },
    {
      "inputs": [
        {
          "internalType": "uint256",
          "name": "_index",
          "type": "uint256"
        }
      ],
      "name": "toggleTaskCompleted",
      "outputs": [],
      "stateMutability": "nonpayable",
      "type": "function"
    }
  ],
  "bytecode": "0x608060405234801561001057600080fd5b50610c3d806100206000396000f3fe608060405234801561001057600080fd5b50600436106100575760003560e01c806304a87e381461005c578063111002aa1461007a5780636140dd60146100965780638d977672146100b2578063f6397fd3146100e3575b600080fd5b610064610101565b60405161007191906105c4565b60405180910390f35b610094600480360381019061008f919061072f565b61020d565b005b6100b060048036038101906100ab91906107ae565b61028b565b005b6100cc60048036038101906100c791906107ae565b610345565b6040516100da929190610834565b60405180910390f35b6100eb61040e565b6040516100f89190610873565b60405180910390f35b60606000805480602002602001604051908101604052809291908181526020016000905b828210156102045783829060005260206000209060020201604051806040016040529081600082018054610158906108bd565b80601f0160208091040260200160405190810160405280929190818152602001828054610184906108bd565b80156101d15780601f106101a6576101008083540402835291602001916101d1565b820191906000526020600020905b8154815290600101906020018083116101b457829003601f168201915b505050505081526020016001820160009054906101000a900460ff16151515158152505081526020019060010190610125565b50505050905090565b6000604051806040016040528083815260200160001515815250908060018154018082558091505060019003906000526020600020906002020160009091909190915060008201518160000190816102659190610a9a565b5060208201518160010160006101000a81548160ff021916908315150217905550505050565b60008054905081106102d2576040517f08c379a00000000000000000000000000000000000000000000000000000000081526004016102c990610bb8565b60405180910390fd5b600081815481106102e6576102e5610bd8565b5b906000526020600020906002020160010160009054906101000a900460ff16156000828154811061031a57610319610bd8565b5b906000526020600020906002020160010160006101000a81548160ff02191690831515021790555050565b6000818154811061035557600080fd5b9060005260206000209060020201600091509050806000018054610378906108bd565b80601f01602080910402602001604051908101604052809291908181526020018280546103a4906108bd565b80156103f15780601f106103c6576101008083540402835291602001916103f1565b820191906000526020600020905b8154815290600101906020018083116103d457829003601f168201915b5050505050908060010160009054906101000a900460ff16905082565b60008080549050905090565b600081519050919050565b600082825260208201905092915050565b6000819050602082019050919050565b600081519050919050565b600082825260208201905092915050565b60005b83811015610480578082015181840152602081019050610465565b60008484015250505050565b6000601f19601f8301169050919050565b60006104a882610446565b6104b28185610451565b93506104c2818560208601610462565b6104cb8161048c565b840191505092915050565b60008115159050919050565b6104eb816104d6565b82525050565b6000604083016000830151848203600086015261050e828261049d565b915050602083015161052360208601826104e2565b508091505092915050565b600061053a83836104f1565b905092915050565b6000602082019050919050565b600061055a8261041a565b6105648185610425565b93508360208202850161057685610436565b8060005b858110156105b25784840389528151610593858261052e565b945061059e83610542565b925060208a0199505060018101905061057a565b50829750879550505050505092915050565b600060208201905081810360008301526105de818461054f565b905092915050565b6000604051905090565b600080fd5b600080fd5b600080fd5b600080fd5b7f4e487b7100000000000000000000000000000000000000000000000000000000600052604160045260246000fd5b61063c8261048c565b810181811067ffffffffffffffff8211171561065b5761065a610604565b5b80604052505050565b600061066e6105e6565b905061067a8282610633565b919050565b600067ffffffffffffffff82111561069a57610699610604565b5b6106a38261048c565b9050602081019050919050565b82818337600083830152505050565b60006106d26106cd8461067f565b610664565b9050828152602081018484840111156106ee576106ed6105ff565b5b6106f98482856106b0565b509392505050565b600082601f830112610716576107156105fa565b5b81356107268482602086016106bf565b91505092915050565b600060208284031215610745576107446105f0565b5b600082013567ffffffffffffffff811115610763576107626105f5565b5b61076f84828501610701565b91505092915050565b6000819050919050565b61078b81610778565b811461079657600080fd5b50565b6000813590506107a881610782565b92915050565b6000602082840312156107c4576107c36105f0565b5b60006107d284828501610799565b91505092915050565b600082825260208201905092915050565b60006107f782610446565b61080181856107db565b9350610811818560208601610462565b61081a8161048c565b840191505092915050565b61082e816104d6565b82525050565b6000604082019050818103600083015261084e81856107ec565b905061085d6020830184610825565b9392505050565b61086d81610778565b82525050565b60006020820190506108886000830184610864565b92915050565b7f4e487b7100000000000000000000000000000000000000000000000000000000600052602260045260246000fd5b600060028204905060018216806108d557607f821691505b6020821081036108e8576108e761088e565b5b50919050565b60008190508160005260206000209050919050565b60006020601f8301049050919050565b600082821b905092915050565b6000600883026109507fffffffffffffffffffffffffffffffffffffffffffffffffffffffffffffffff82610913565b61095a8683610913565b95508019841693508086168417925050509392505050565b6000819050919050565b600061099761099261098d84610778565b610972565b610778565b9050919050565b6000819050919050565b6109b18361097c565b6109c56109bd8261099e565b848454610920565b825550505050565b600090565b6109da6109cd565b6109e58184846109a8565b505050565b5b81811015610a09576109fe6000826109d2565b6001810190506109eb565b5050565b601f821115610a4e57610a1f816108ee565b610a2884610903565b81016020851015610a37578190505b610a4b610a4385610903565b8301826109ea565b50505b505050565b600082821c905092915050565b6000610a7160001984600802610a53565b1980831691505092915050565b6000610a8a8383610a60565b9150826002028217905092915050565b610aa382610446565b67ffffffffffffffff811115610abc57610abb610604565b5b610ac682546108bd565b610ad1828285610a0d565b600060209050601f831160018114610b045760008415610af2578287015190505b610afc8582610a7e565b865550610b64565b601f198416610b12866108ee565b60005b82811015610b3a57848901518255600182019150602085019450602081019050610b15565b86831015610b575784890151610b53601f891682610a60565b8355505b6001600288020188555050505b505050505050565b7f496e76616c6964207461736b20696e6465780000000000000000000000000000600082015250565b6000610ba26012836107db565b9150610bad82610b6c565b602082019050919050565b60006020820190508181036000830152610bd181610b95565b9050919050565b7f4e487b7100000000000000000000000000000000000000000000000000000000600052603260045260246000fdfea2646970667358221220083eca217d56ce6be2f302082e6d9eadfd702ea275a3e2a78a1505e2c2cc585f64736f6c63430008120033",
  "linkReferences": {},
  "deployedLinkReferences": {}
}